:100000000C9462000C948A000C948A000C948A0070
:100010000C948A000C948A000C948A000C948A0038
:100020000C948A000C948A000C948A000C94490762
:100030000C948A000C948A000C948A000C948A0018
:100040000C94E4050C948A000C94B2050C948C0575
:100050000C948A000C948A000C948A000C948A00F8
:100060000C942E060C948A00000000002500280045
:100070002B0000000000240027002A0000000000E0
:1000800023002600290004040404040404040202DA
:100090000202020203030303030301020408102007
:1000A0004080010204081020010204081020000012
:1000B0000008000201000003040700000000000027
:1000C0000000200811241FBECFEFD8E0DEBFCDBF57
:1000D00011E0A0E0B1E0E6E9F5E102C005900D9283
:1000E000A638B107D9F723E0A6E8B1E001C01D9218
:1000F000AB30B207E1F710E0C2E6D0E004C02197D0
:10010000FE010E94C30AC136D107C9F70E947808D0
:100110000C94C90A0C940000AF92BF92CF92DF9268
:10012000EF92FF920F931F93CF93DF936C017B01AC
:100130008B01040F151FEB015E01AE18BF08C0173D
:10014000D10759F06991D601ED91FC910190F081B0
:10015000E02DC6010995892B79F7C501DF91CF9173
:100160001F910F91FF90EF90DF90CF90BF90AF90D5
:100170000895FC01538D448D252F30E0842F90E0AD
:10018000821B930B541710F0CF9608950197089592
:10019000FC01918D828D981761F0A28DAE0FBF2F5B
:1001A000B11D5D968C91928D9F5F9F73928F90E0B1
:1001B00008958FEF9FEF0895FC01918D828D981720
:1001C00031F0828DE80FF11D858D90E008958FEF5D
:1001D0009FEF0895FC01918D228D892F90E0805C26
:1001E0009F4F821B91098F73992708958AE492E0AB
:1001F0000E94EA0021E0892B09F420E0822F089573
:1002000080E090E0892B29F00E94F60081110C9487
:1002100000000895FC01A48DA80FB92FB11DA35AA9
:10022000BF4F2C91848D90E001968F739927848F16
:10023000A689B7892C93A089B1898C918370806439
:100240008C93938D848D981306C00288F389E02DDA
:1002500080818F7D80830895EF92FF920F931F938B
:10026000CF93DF93EC0181E0888F9B8D8C8D981369
:100270001AC0E889F989808185FF15C09FB7F89475
:10028000EE89FF896083E889F989808183708064C1
:1002900080839FBF81E090E0DF91CF911F910F910C
:1002A000FF90EF900895F62E0B8D10E00F5F1F4F1B
:1002B0000F731127E02E8C8D8E110CC00FB607FC2A
:1002C000FACFE889F989808185FFF5CFCE010E94B8
:1002D0000A01F1CFEB8DEC0FFD2FF11DE35AFF4F1B
:1002E000F0829FB7F8940B8FEA89FB898081806246
:1002F000CFCFCF93DF93EC01888D8823B9F0AA8903
:10030000BB89E889F9898C9185FD03C0808186FDD0
:100310000DC00FB607FCF7CF8C9185FFF2CF80811F
:1003200085FFEDCFCE010E940A01E9CFDF91CF9189
:100330000895833081F028F4813099F08230A9F05B
:1003400008958730A9F08830C9F08430B1F48091E5
:1003500080008F7D03C0809180008F778093800024
:10036000089584B58F7784BD089584B58F7DFBCFC4
:100370008091B0008F778093B00008958091B00095
:100380008F7DF9CF1F93CF93DF93282F30E0F901B2
:10039000E255FF4F8491F901E656FF4FD491F901E0
:1003A000EA57FF4FC491CC23A9F0162F81110E9468
:1003B0009901EC2FF0E0EE0FFF1FE859FF4FA591D8
:1003C000B4918FB7F894EC91111108C0D095DE2349
:1003D000DC938FBFDF91CF911F910895DE2BF8CF73
:1003E0003FB7F8948091460290914702A09148024D
:1003F000B091490226B5A89B05C02F3F19F0019680
:10040000A11DB11D3FBFBA2FA92F982F8827BC016E
:10041000CD01620F711D811D911D42E0660F771F96
:10042000881F991F4A95D1F708958F929F92AF9296
:10043000BF92CF92DF92EF92FF924B015C010E943C
:10044000F0016B017C010E94F0016C197D098E099D
:100450009F09683E734081059105A8F321E0821A47
:100460009108A108B10888EEC80E83E0D81EE11CEF
:10047000F11C81149104A104B10429F7FF90EF90BD
:10048000DF90CF90BF90AF909F908F900895089588
:100490001F93CF93DF93C1E0C093AD01882399F1FF
:1004A000D091B8001091BA008091BC008A7B8093F3
:1004B000BC0060E082E10E94C20160E083E10E9432
:1004C000C20110921702C09316021092F10161E06E
:1004D00082E10E94C20161E083E10E94C201809139
:1004E000B9008E7F8093B9008091B9008D7F809391
:1004F000B90088E48093B80085E48093BC00109331
:10050000BA00D093B800DF91CF911F910895209148
:10051000CE01260F3327331F21323105ECF4209111
:100520001702FC0190E080E0243069F082E0089539
:10053000A091CE012191AC0142555E4FA40FB52F81
:10054000B11D2C930196861798F38091CE01680F08
:100550006093CE0180E0089581E0089508958FEFC3
:100560009FEF08958FEF9FEF08958091AC0190E089
:100570009195819591090895CF92DF92EF92FF9224
:100580000F931F93CF93DF937C01CB018A012091BE
:100590001D02222389F0EB016B01C40ED51ECC1580
:1005A000DD0569F06991D701ED91FC910190F08131
:1005B000E02DC7010995F3CF642F0E948702C8017F
:1005C000DF91CF911F910F91FF90EF90DF90CF902F
:1005D0000895CF93DF931F92CDB7DEB76983209143
:1005E0001D022223F9F020914002203258F021E030
:1005F00030E0FC013383228390E080E00F90DF91B4
:10060000CF91089580911E02E82FF0E0E15EFD4F4A
:10061000998190838F5F80931E028093400281E0D6
:1006200090E0ECCF61E0CE0101960E948702F7CF07
:10063000CF92DF92EF92FF920F931F93CF93DF93AE
:10064000FC01C48121E020931D02C0933F0210925F
:100650001E02109240028385682B87EE92E00E9472
:10066000E902D0914002D13208F092C00E94F0011C
:100670006B017C0180911702811165C082E080933B
:10068000170281E0809316028FEF8093150210927B
:100690001402D0931302AFE1B2E0E3EFF1E080E0A7
:1006A000D81385C01092F2018091F201CC0FC82BB3
:1006B000C093F2018091F101813009F07CC0109269
:1006C000F1010E94F0016B017C018091F2018093A5
:1006D000BB008091190290911A02A0911B02B09167
:1006E0001C02892B8A2B8B2B99F00E94F001009120
:1006F000190210911A0220911B0230911C026C19F0
:100700007D098E099F090617170728073907E0F1A9
:100710008091BC0083FDD9CF85EC8093BC000E9402
:10072000F0016B017C0180911702823009F445C011
:10073000809115028F3F61F180911502803241F165
:100740008091150225C08091190290911A02A09102
:100750001B02B0911C02892B8A2B8B2B09F48ACFA8
:100760000E94F0010091190210911A0220911B02BF
:1007700030911C026C197D098E099F090617170715
:100780002807390708F076CF809118020E944802A6
:1007900010921E021092400210921D02DF91CF9122
:1007A0001F910F91FF90EF90DF90CF9008959D9152
:1007B00091938F5F75CF85EEB0CF809119029091A4
:1007C0001A02A0911B02B0911C02892B8A2B8B2B41
:1007D00009F4A9CF0E94F0010091190210911A02A8
:1007E00020911B0230911C026C197D098E099F0912
:1007F000061717072807390708F095CFC5CF90E0EF
:1008000080E008958F929F92AF92BF92FF920F93D4
:100810001F93CF93DF93FC01F0808BE08F1508F4DA
:100820004AC0828108E512E0081B110987FD139573
:10083000000F111F000F111F8181C8E8D0E0C81BF5
:10084000D10987FDD395CC0FDD1FCC0FDD1F4E01E5
:100850000D2E000CAA08BB089801012E000C440BB9
:10086000550B281939094A095B09DB010E947E0AE8
:1008700024EB30E040E050E00E94540A820E931EC8
:10088000A41EB51E8C169D062CF0E801801691065C
:100890000CF4E4012297CC0FDD1F2FB7F8948F2DB5
:1008A00090E0FC01EE0FFF1FE80FF91FE857FE4F25
:1008B000D283C1832FBFDF91CF911F910F91FF9002
:1008C000BF90AF909F908F900895CF93DF93DC01FE
:1008D0008C918C3008F06DC0CB01FB01E656FF4FC8
:1008E00024918A579F4FFC018491882399F090E0CE
:1008F000880F991FFC01EE58FF4FC591D491FC0160
:10090000E859FF4F859194918FB7F894E881E22BD5
:10091000E8838FBF8C91282F30E0F901EE0FFF1F85
:10092000E20FF31FE857FE4F962F9F736081607CA4
:10093000692B608311961C92119712961C92129744
:100940002CE0622F0E94B70A829FB001112430E090
:1009500020E0AB01420F531FFA01EE0FFF1FE40F1F
:10096000F51FE857FE4F908196FD16C02F5F3F4F51
:100970002C30310571F781110FC01092800082E098
:10098000809381001092850010928400B19A80912A
:100990006F00826080936F00EC918E2F90E0FC01DD
:1009A000EE0FFF1FE80FF91FE857FE4F80818064AC
:1009B00080838C91DF91CF910895FC0101900020FC
:1009C000E9F73197AF01481B590BBC0183EF92E067
:1009D0000C948C000F931F93CF938C01C62F0E9411
:1009E00018036C2F6460C8010E9418036C2F6B7F82
:1009F000C8010E94180383EC90E00197F1F7CF91B2
:100A00001F910F9108950F931F93CF93DF938C0144
:100A1000D62FC42F607F642B0E94EA0480E1D89F08
:100A2000B00111246C2BC801DF91CF911F910F9160
:100A30000C94EA04CF93DF93CDB7DEB728970FB6B7
:100A4000F894DEBF0FBECDBF98E0E0E0F1E0DE013C
:100A5000119601900D929A95E1F79091FB029617ED
:100A600010F46FEF690F262F30E0220F331F41E0A3
:100A700050E04C0F5D1F240F351FF9016081680F96
:100A8000606840E083EF92E028960FB6F894DEBFEE
:100A90000FBECDBFDF91CF910C94030541E00E94C2
:100AA000030581E090E0089585ED8093BC0080917E
:100AB000190290911A02A0911B02B0911C02079694
:100AC000A11DB11D23E0B695A795979587952A9509
:100AD000D1F72091BC0024FD03C0109217020895A5
:100AE0004091190250911A0260911B0270911C02F0
:100AF000452B462B472B69F30097A105B10541F023
:100B000025E32A95F1F700000197A109B109E1CF8A
:100B1000809118020C9448021F920F920FB60F9208
:100B200011242F933F934F935F936F937F938F93F2
:100B30009F93AF93BF93EF93FF938AE492E00E9459
:100B40000A01FF91EF91BF91AF919F918F917F919A
:100B50006F915F914F913F912F910F900FBE0F902A
:100B60001F9018951F920F920FB60F9211242F937A
:100B70008F939F93EF93FF93E0915A02F0915B0262
:100B80008081E0916002F091610282FD1BC0908142
:100B9000809163028F5F8F7320916402821741F00E
:100BA000E0916302F0E0E65BFD4F958F8093630276
:100BB000FF91EF919F918F912F910F900FBE0F900A
:100BC0001F9018958081F4CF1F920F920FB60F924D
:100BD00011242F933F938F939F93AF93BF93809153
:100BE000420290914302A0914402B091450230919B
:100BF000410223E0230F2D3758F50196A11DB11DA9
:100C0000209341028093420290934302A0934402B6
:100C1000B09345028091460290914702A09148020C
:100C2000B09149020196A11DB11D80934602909397
:100C30004702A0934802B0934902BF91AF919F91A0
:100C40008F913F912F910F900FBE0F901F9018958D
:100C500026E8230F0296A11DB11DD2CF1F920F923D
:100C60000FB60F9211242F933F934F935F936F937F
:100C70007F938F939F93AF93BF93EF93FF93809155
:100C8000B900887F803609F44AC0F0F5883209F44B
:100C9000A5C018F5803109F499C0B8F4882309F487
:100CA000F5C0883009F492C0FF91EF91BF91AF91E8
:100CB0009F918F917F916F915F914F913F912F9174
:100CC0000F900FBE0F901F901895883109F486C0C1
:100CD000803251F78093150214C0803409F49BC010
:100CE00040F48033B9F38833F9F68093150285EC2C
:100CF000AEC0803509F483C0883509F494C08834C7
:100D000099F60E945405D0CF883909F48AC038F585
:100D1000883729F050F4883611F0803729F683E0BF
:100D2000809317021092F00155C0883809F479C0F9
:100D3000803919F0803809F0B7CF8091F001803206
:100D400008F06FC0E091F00181E08E0F8093F00118
:100D50008091BB00F0E0E053FE4F80833BC0803BBE
:100D600039F0D0F4803A09F477C0883A09F09CCF82
:100D700084E0809317021092CF011092CE01F0E030
:100D8000E0E009958091CE0181110FC081E0809350
:100D9000CE011092AE0109C0803C09F4A8CF883C76
:100DA00009F4A5CF883B09F07FCFE091CF0181E026
:100DB0008E0F8093CF01F0E0E255FE4F808180934B
:100DC000BB009091CF018091CE0129C08091F201AA
:100DD0008093BB0085EC8093BC0066CF9091140299
:100DE00080911302981758F5E091140281E08E0F5C
:100DF00080931402F0E0ED50FE4F8081E9CFE09146
:100E0000140281E08E0F809314028091BB00F0E009
:100E1000ED50FE4F80839091140280911302981739
:100E2000C8F285E8D8CFE091140281E08E0F80935C
:100E300014028091BB00F0E0ED50FE4F8083809162
:100E4000160281115ECF81E08093F10184EA8093E4
:100E5000BC001092170228CF85EC8093BC00109242
:100E600017028091F001803230F4E091F001F0E05F
:100E7000E053FE4F10826091F00170E080ED91E050
:100E8000F0E0E0E009951092F0010ECF109215020B
:100E900038CF1F920F920FB60F9211242F933F93CA
:100EA0004F935F936F937F938F939F93AF93BF9372
:100EB000CF93DF93EF93FF9380918601C0918701D9
:100EC000D0E087FF24C010928500109284008091AA
:100ED00086018F5F8093860180918601082E000C29
:100EE000990B8C179D0724F4809186018C30C4F1F6
:100EF0008091840090918500049680349C4908F488
:100F00007AC08091840090918500049676C080918B
:100F10008601082E000C990B8C179D07C4F6E091F2
:100F200086018E2FEE0F990BFC01EE0FFF1FE80FCD
:100F3000F91FE857FE4F808186FFC9CFE0918601F7
:100F40008E2FEE0F990BFC01EE0FFF1FE80FF91F1C
:100F5000E857FE4F808160E08F730E94C201B7CFD7
:100F60002091840030918500E09186018E2FEE0F54
:100F7000990BFC01EE0FFF1FE80FF91FE857FE4F1A
:100F800081819281820F931F9093890080938800C2
:100F9000E09186018E2FEE0F990BFC01EE0FFF1FE3
:100FA000E80FF91FE857FE4F808186FF11C0E091DE
:100FB00086018E2FEE0F990BFC01EE0FFF1FE80F3D
:100FC000F91FE857FE4F808161E08F730E94C201D4
:100FD000FF91EF91DF91CF91BF91AF919F918F9151
:100FE0007F916F915F914F913F912F910F900FBE25
:100FF0000F901F90189580E49CE99093890080934E
:1010000088008FEF80938601E3CFFC0190918701E8
:101010009C3098F481E0890F809387019083892F19
:1010200090E0FC01EE0FFF1FE80FF91FE857FE4F9D
:1010300088EB9BE09283818308958FEF80830895EE
:10104000EAE4F2E01382128288EE93E0A0E0B0E0DE
:1010500084839583A683B7832CE031E0318320839A
:1010600025EC30E03587248724EC30E0378726876D
:1010700020EC30E0318B208B21EC30E0338B228B65
:1010800022EC30E0358B248B26EC30E0378B268B3E
:10109000118E128E138E148EE7EEF2E013821282FE
:1010A00084839583A683B7838EE191E091838083C7
:1010B00088E093E00E94050885E093E00E9405081F
:1010C00082E093E00E9405088FEF92E00E940508FD
:1010D000E3EFF2E01382128280E391E09183808358
:1010E00087E2848384E1818784E082871386089580
:1010F000789484B5826084BD84B5816084BD85B5F3
:10110000826085BD85B5816085BD80916E008160FE
:1011100080936E00109281008091810082608093A4
:1011200081008091810081608093810080918000A6
:101130008160809380008091B10084608093B100D1
:101140008091B00081608093B00080917A008460CB
:1011500080937A0080917A00826080937A008091F7
:101160007A00816080937A0080917A008068809311
:101170007A001092C10068E070E088E093E00E947D
:10118000650469E070E085E093E00E9465046AE030
:1011900070E082E093E00E9465046BE070E08FEF06
:1011A00092E00E94650470E060E088E093E00E94B5
:1011B000020470E060E085E093E00E94020470E0C9
:1011C00060E082E093E00E94020470E060E08FEF54
:1011D00092E00E940204C8EAD0E0FE01249104E9F2
:1011E00010E0F80184918823C9F090E0880F991FDE
:1011F000FC01EE58FF4FA591B491FC01E859FF4F57
:10120000459154913FB7F8949C91822F80959823F3
:101210009C93FA019081892380833FBF8091F802DB
:1012200088608093F80294E0D92ED092FB0262E3AA
:1012300070E080E090E00E9415026091FE0283EF72
:1012400092E00E94180368EE73E080E090E00E9454
:10125000150260E383EF92E00E94EA042BE4E22EA1
:1012600026E4F22EC7010197F1F760E383EF92E0E5
:101270000E94EA04C7010197F1F760E383EF92E06F
:101280000E94EA0483E592E00197F1F760E283EFC0
:1012900092E00E94EA046091F802606240E083EF0D
:1012A00092E00E940305D092F90240E06CE083EFE7
:1012B00092E00E94030540E061E083EF92E00E942B
:1012C00003053BE3E32E3FE1F32EC7010197F1F75E
:1012D00042E0D42ED092FA0240E066E083EF92E042
:1012E0000E94030540E062E083EF92E00E94030564
:1012F000C7010197F1F760E080E00E941A0588E3DA
:1013000091E00E94DD04E0915A02F0915B02D082EC
:10131000E0915602F09157021082E0915802F0914C
:1013200059028FEC808310926202E0915E02F0918C
:101330005F0286E08083E0915C02F0915D02808133
:1013400080618083E0915C02F0915D028081886021
:101350008083E0915C02F0915D02808180688083EF
:10136000E0915C02F0915D0280818F7D80835CEB77
:10137000E52E50E0F52E60E0C62E60E0D62EF70197
:101380008491FE01A490F801B490BB2009F43DC003
:1013900081110E949901EB2DF0E0EE0FFF1FE45840
:1013A000FF4FA591B4918C91A82291E080E009F4BF
:1013B00090E0A92EB82E8AE492E00E94EA00181666
:1013C0001906BCF48AE492E00E94C800AB2809F038
:1013D0004CC08735E9F46AE570E088E093E00E944C
:1013E000020461E081E00E941A058CE491E00E9411
:1013F000DD04C114D10409F4C2CF0E94F600882391
:1014000009F4BDCF0E940000BACFB12CA12CD3CFDC
:10141000813469F46AE570E085E093E00E9402049B
:1014200062E081E00E941A0586E591E0E0CF833515
:1014300069F46AE570E082E093E00E94020463E0F0
:1014400081E00E941A0582E691E0D1CF843489F6CA
:101450006AE570E08FEF92E00E94020464E081E0B0
:101460000E941A058EE691E0C2CF70E060E088E04D
:1014700093E00E94020470E060E085E093E00E9447
:10148000020470E060E082E093E00E94020470E0F9
:1014900060E08FEF92E00E94020460E081E00E9431
:1014A0001A058BE791E0A3CF052E97FB1EF400945D
:1014B0000E946B0A57FD07D00E94860A07FC03D0E2
:1014C0004EF40C946B0A50954095309521953F4F02
:1014D0004F4F5F4F089590958095709561957F4F20
:1014E0008F4F9F4F08950E94A80AA59F900DB49F0B
:1014F000900DA49F800D911D11240895B7FF0C94A9
:10150000730A0E94730A821B930B0895A1E21A2E9C
:10151000AA1BBB1BFD010DC0AA1FBB1FEE1FFF1F97
:10152000A217B307E407F50720F0A21BB30BE40BE7
:10153000F50B661F771F881F991F1A9469F760952E
:101540007095809590959B01AC01BD01CF010895E8
:10155000A29FB001B39FC001A39F700D811D1124F4
:10156000911DB29F700D811D1124911D0895991B2D
:1015700079E004C0991F961708F0961B881F7A958A
:10158000C9F780950895EE0FFF1F0590F491E02DA7
:061590000994F894FFCF5E
:101596000000400014005400000000002C018C00E4
:1015A600B9007901EA00C800DC0000000000E90289
:1015B600BC02FF03AE02B502B202AF020000000099
:1015C6004E058C00FF034702536572766F204D6F00
:1015D600746F7220436F6E74726F6C004D4F564974
:1015E6004E47205550004D4F56494E47204C4546D4
:1015F60054004D4F56494E4720444F574E004D4FCD
:1016060056494E4720524947485400536572766FF3
:0616160073204F66660020
:00000001FF
